:10000000D0FD240025D5E1F4E2D2FD248025D4E101
:10001000DFE1DFE05058D350B55051D350B5504CCC
:10002000D350B5D250B5282850A6280850A628018C
:1000300050A65051280650A6280C50A620BD508E20
:1000400028C050A620D6508E2A00407B2400744E33
:10005000C0240074537553C0240026D0745C755CB2
:10006000765CC024002600746775677667C024003C
:1000700026007472757276727772C0747B757B76A7
:100080007BD0FDABF2E1BBF78AE2BA2B407B38A90B
:100090001C95A8149F50A0A1F2B1F780B0408EC06B
:1000A0002203A3E440AC2201A3E440ACA8E5D8833A
:1000B000E4F083E4A9E5D883E4F083E4C0496E74F6
:1000C000656C20343030342043505520776F726B8C
:1000D000696E67212000496E74656C2034303034BD
:0F00E0002073797374656D206279204A616E0018
:00000001FF
